:020000040800F2
:100000000080012089120008E10C0008E30C0008C0
:10001000E50C0008E70C0008E90C000800000000EF
:10002000000000000000000000000000EB0C0008D1
:10003000ED0C000800000000EF0C0008F10C0008B7
:10004000D9120008D9120008D9120008D9120008E4
:10005000D9120008D9120008D9120008D9120008D4
:10006000D9120008D9120008D9120008D9120008C4
:10007000D9120008D9120008D9120008D9120008B4
:10008000D9120008D9120008D91200080000000097
:10009000000000000000000000000000D91200086D
:1000A000D9120008D9120008D9120008D912000884
:1000B000D9120008D9120008D9120008D912000874
:1000C000D9120008D9120008D9120008D912000864
:1000D000D9120008D9120008D91200080000000047
:1000E000D9120008D9120008D91200080000000037
:1000F000000000000000000000000000D91200080D
:1001000000000000D9120008D9120008D912000816
:1001100000000000000000000000000000000000DF
:10012000D9120008D9120008D9120008D912000803
:10013000D9120008000000000000000000000000CC
:10014000000000000000000000000000D9120008BC
:10015000D9120008D9120008D9120008D9120008D3
:10016000D9120008D91200080000000000000000A9
:10017000000000000000000000000000000000007F
:1001800000000000D912000800000000000000007C
:04019000D912000878
:100194000348044B834202D0034B03B11847704712
:1001A4001400002014000020000000000548064B45
:1001B4001B1AD90F01EBA301491002D0034B03B161
:1001C40018477047140000201400002000000000AD
:1001D40010B5064C237843B9FFF7DAFF044B13B18B
:1001E4000448AFF300800123237010BD14000020E5
:1001F40000000000DC12000808B5044B1BB10449E0
:100204000448AFF30080BDE80840CFE700000000D9
:1002140018000020DC12000870B50D4E0D4D761B41
:10022400B61006D0002455F8043B01349847A64282
:10023400F9D1094E094D761B01F04EF8B61006D0DF
:10024400002455F8043B01349847A642F9D170BD07
:10025400FC120008FC12000800130008FC1200083D
:10026400034AD2F8883043F47003C2F888307047E8
:1002740000ED00E000220F2A4DD810B514E0C36849
:1002840094B264004FF0030E0EFA04FE23EA0E0348
:10029400C360C36891F807E00EFA0CFC43EA0C0350
:1002A400C36001320F2A35D8012393400C68A3435D
:1002B400F7D104684FEA420C032303FA0CF36FEA04
:1002C400030E24EA0303036003680C7904FA0CF4B4
:1002D400234303600B79013BDBB2012BCFD8836846
:1002E4000EEA0303836083684C7904FA0CF4234315
:1002F400836043681FFA82FE012404FA0EF423EAA1
:100304000403436044688B7903FA0EF39BB22343DE
:100314004360B4E710BD70470369194201D001205E
:10032400704700207047816170470AB1816170474E
:1003340009048161704710B401F007039B009A40DF
:10034400C908083150F821404FF00F0C0CFA03F3A0
:1003540024EA030340F8213050F82130134340F8D5
:1003640021305DF8044B704710B4294B9B6803F0AF
:100374000C03042B23D0082B24D013B1254B03608A
:1003840001E0244B0360224CA368C3F30313224906
:10039400CA5CD2B20368D3404360A268C2F382222B
:1003A4008A5CD2B223FA02F28260A268C2F34232B9
:1003B4008A5CD2B2D340C3605DF8044B7047174BDC
:1003C4000360E0E7124B59685A6802F03F0211F4E7
:1003D400800F12D0114BB3FBF2F30D4A5268C2F3F3
:1003E400881202FB03F30A4A5268C2F30142013243
:1003F4005200B3FBF2F30360C5E7064BB3FBF2F321
:10040400034A5268C2F3881202FB03F3EBE700BF0E
:10041400003802400024F4000000002040787D01F0
:1004240021B1054A136B034313637047024A136BEC
:1004340023EA0003136370470038024021B1054AE0
:10044400536C034353647047024A536C23EA00031A
:10045400536470470038024030B585B004460D46F9
:10046400038A9BB223F44053CA88134303828389CB
:100474009BB223F4B05323F00C03898828896A893A
:1004840001430A431343A381A38A9BB223F4407319
:10049400AA891343A3826846FFF766FF1F4B9C4259
:1004A40005D003F580639C4201D0029B00E0039BCE
:1004B400A28912F4004F1FD103EB830303EB8303E0
:1004C4002A689200B3FBF2F3154AA2FB0312520905
:1004D4001101642002FB1033A28912F4004F14D1DD
:1004E4001B0132330E4AA2FB0323C3F343130B4312
:1004F4009BB2238105B030BD03EB830303EB83037D
:100504002A685200B3FBF2F3DEE7DB003233044A1D
:10051400A2FB0323C3F342130B43E9E7001001409A
:100524001F85EB5129B183899BB243F40053838126
:10053400704783899BB223F400539BB28381704735
:10054400F0B583B000F055FD00F094FC00F09AF98A
:1005540082E0424D424E434F434B0193434B009341
:10056400434B2A463146384600F049FDB7F900307E
:1005740000EE103AB8EEC00ADFED3E7A20EE270A0C
:100584003D4B83ED000AB6F9003000EE903AF8EEE8
:10059400E00A60EEA70A394BC3ED000AB5F9003052
:1005A40001EE103AB8EEC11A21EE271A344B83ED4E
:1005B400001A00F0DFF80134052CCADD00F048FA17
:1005C4002F4B93ED001A2D4BD3ED000A2A4B93EDDC
:1005D400000A00F057FB2B4D2B4C2C4B93ED003AAB
:1005E4002B4BD3ED002A2B4B93ED002A2A4BD3ED52
:1005F400001A95ED001AD4ED000A284B93ED000A79
:1006040000F09EFD264B93ED003A264BD3ED002AD5
:10061400254B93ED002A254BD3ED001A95ED001AD6
:10062400D4ED000A224B93ED000A00F0BFFD214BEC
:1006340093ED003A204BD3ED002A204B93ED002A92
:100644001F4BD3ED001A95ED001AD4ED000A1D4B93
:1006540093ED000A00F0E0FD0024ADE792000020D5
:1006640094000020960000208C0000208E000020C2
:10067400900000200000003A880000208400002040
:10068400800000203C000020400000206400002086
:10069400680000206C00002070000020380000205A
:1006A40054000020580000205C000020600000205E
:1006B4003400002044000020480000204C000020AA
:1006C4005000002030000020034B1B681BB1024A7D
:1006D4001368013B1360704798000020002012E06B
:1006E40000EB400313440A4901EB83014FF0000C73
:1006F400C1F800C0074901EB8303C3F800C001320D
:10070400022AEDDD0130052801DC0022F8E77047FC
:10071400C80200201003002000230DE0124A02EB5F
:10072400830200211160114A02EB83021160104A16
:1007340002EB830211600133022BEFDD03230FE090
:10074400094A02EB83024FF07E511160074A02EB23
:1007540083021160064A02EB830200211160013317
:10076400052BEDDD704700BF9802002080020020B9
:10077400B002002027480378274AA2FB03129208FC
:1007840002EB4202A3EB4203DBB2037003EB43012F
:10079400224A02EB810282ED000AC2ED010A82EDD7
:1007A400021A1F4AD2ED007A30EE670AD2ED037ABC
:1007B40020EE270A8C461B4901EB8C0181ED000ACF
:1007C400D2ED017A70EEE70AD2ED047A60EEA70A60
:1007D400C1ED010AD2ED027A31EE671AD2ED057A43
:1007E40021EE271A81ED021A20EE000AF7EE007AB4
:1007F40077EEC07A60EEA00A77EEE07A21EE011A75
:1008040077EEC17A084A02EB8302C2ED007A013323
:10081400037070477C020020ABAAAAAA1003002030
:1008240080020020C8020020640200204FF0000C67
:100834001AE00CEB4C014B0013440E4901EB83010D
:10084400002008600C4901EB830108600B4901EBAF
:10085400830318600132022AEBDD094B03EB8C039E
:1008640000221A600CF1010CBCF1050F01DC00221E
:10087400F1E77047D4010020440100209C000020CF
:100884002C01002008B5FFF729FFFFF745FFFFF70C
:10089400CDFF08BD70B5C8B00C461146002326E054
:1008A40003EB430200EBC20202EB8502166803EB82
:1008B400430205EB82020DEB8202166001358D4284
:1008C400EEDB00220BE04FF07E5C551803EB430691
:1008D40005EB86050DEB8505C5F800C001328A429B
:1008E40004DA9342EFD04FF0000CEEE701338B4271
:1008F40001DA0025E3E74FF0000E79E001338B4283
:1009040012DA03EB43020EEB82020DEB8202D2ED0C
:10091400007AF0EEE77AF4EEC77AF1EE10FAEDDD44
:100924009C46B0EE677AE9E7704612E00CEB4C03A4
:1009340000EB83030DEB83031E680EEB4E0200EB0A
:1009440082020DEB8202D2ED007AC3ED007A1660CA
:1009540001304E00B0EB410FE8DB34236A4603FB61
:100964000E23D3ED006AF5EE406AF1EE10FA01D0E1
:10097400002210E00020354B186064E00EEB4E03BB
:1009840002EB83030DEB830393ED007AC7EE267A23
:10099400C3ED007A01329642F0DC002219E002EB4A
:1009A400420300EB83030DEB8303D3ED007A0EEBDC
:1009B4004E0C00EB8C0C0DEB8C0C9CED007A27EEAE
:1009C400267A77EEC77AC3ED007A01308642E6DCF8
:1009D40001328A420BDA9645FAD002EB42030EEB5F
:1009E40083030DEB8303D3ED006A0020EEE7AE46EC
:1009F4008E450CDA34236A4603FB0E2393ED007A0A
:100A0400B0EEC77A0EF101052B46F44677E70020D5
:100A140012E0951D00EB400304EBC30300EB40061A
:100A240005EB86050DEB85052D6803EB82031D6040
:100A340001328A42EDDB0130884201DA0022F8E714
:100A44000120024B186048B070BD00BF10000020A8
:100A540070B5002364E003EB43018A00804810442E
:100A6400D0ED006A76EEA67A7E4991ED003A33EE37
:100A7400037A77EEC77AD1ED034A67EEA47A64EE7F
:100A8400A77A794C03EB4305EA002244C2ED007ACD
:100A940090ED017A77EE077AD1ED013A33EEA36A4D
:100AA40077EEC67A91ED045A67EE857A65EE277A79
:100AB400C2ED017AD0ED027A37EEA76A91ED024ACF
:100AC40074EE045A36EE656AD1ED055A26EE256AAF
:100AD40025EE866A82ED026A76EEC36AB8EE006A93
:100AE40026EE863A66EE836A64EEA64AC2ED034AAF
:100AF40037EE637A67EE066A27EE267A25EE075A02
:100B040082ED045A77EEC47A27EE866A67EE867A17
:100B140065EEA75AEA001444C4ED055A0133DBB26A
:100B2400052B98D900254CE00CEB4C014A0072448B
:100B34004E4901EB8201D1ED007A4B4803EB4306A9
:100B44007200624400EB820292ED007A72007244F9
:100B540000EB8200D0ED006A27EE267A77EE877AE2
:100B6400C1ED007A0133DBB2052BDDD9404B03EB39
:100B74008C03D3ED007A0EEB4E014A0062443A49ED
:100B840001EB820292ED007A3A4A02EB8E02D2ED38
:100B9400006A27EE267A77EE877AC3ED007A01346D
:100BA400E4B2052C0BD8A6460CEB4C0253002344AC
:100BB4002E4A02EB830300221A600023D4E7013596
:100BC400EDB2052D07D8AC46294B03EB8503002273
:100BD4001A600024E5E7062227492448FFF75AFE55
:100BE40000241EE0254A02EB8402D2ED007A04EBD5
:100BF400440041001944204800EB810191ED007A42
:100C04001B4901EB8301D1ED006A27EE267A77EECA
:100C1400877AC2ED007A0133DBB2052BE2D90134C5
:100C2400E4B2052C01D80023F7E7002314E0144AAA
:100C340002EB8302D2ED007A104901EB830191EDBE
:100C4400007A77EEC77A074901EB8301C1ED007A98
:100C5400C2ED007A0133DBB2052BE8D970BD00BFC9
:100C6400C802002080020020D4010020440100209A
:100C74002C010020640200209C000020B00200200F
:100C840098020020114BD3ED007A30EE670AD3EDC1
:100C9400037A20EE270A0E4A82ED000AD3ED017A88
:100CA40070EEE70AD3ED047A60EEA70A094AC2EDB2
:100CB400000AD3ED027A31EE671AD3ED057A21EEFC
:100CC400271A054B83ED001A704700BF80020020ED
:100CD4007C00002078000020740000207047FEE7AC
:100CE400FEE7FEE7FEE770477047704708B5FFF779
:100CF400EBFC08BD00EBC000C0004FF0E0235861DE
:100D040000229A6105221A614FF0E0231B6913F453
:100D1400803FF9D04FF0E02304221A6170470000AD
:100D240008B502464FF480610348FFF7FEFA0A2033
:100D3400FFF7E0FF08BD00BF0008024008B5024607
:100D44004FF480510348FFF7F0FA0A20FFF7D2FF6F
:100D540008BD00BF0008024010B54FF4805104489C
:100D6400FFF7DAFA04460A20FFF7C4FF204610BD55
:100D74000008024030B583B001210420FFF750FB86
:100D840001238DF804308DF806304FF4A0550095FA
:100D940002238DF80530054C69462046FFF76AFAB0
:100DA40029462046FFF7BFFA03B030BD00080240D1
:100DB40008B50120FFF7C2FF0120FFF7B1FF0020B3
:100DC400FFF7BCFF0020FFF7ABFF08BD08B500200C
:100DD400FFF7B4FF0120FFF7A3FF0120FFF7AEFFE9
:100DE40008BD38B5054600240CE080202041284089
:100DF400FFF7A4FF0120FFF793FF0020FFF790FF08
:100E04000134E4B2072CF0D938BD38B500252C469E
:100E140004E00020FFF784FF0134E4B2072C0ED86D
:100E24000120FFF78BFF0120FFF77AFFFFF794FF04
:100E34000128EED1802323411D43EDB2E9E7284682
:100E440038BD08B5FFF77AFF0120FFF769FF0020DE
:100E5400FFF766FF08BD10B50120FFF76FFF012003
:100E6400FFF75EFFFFF778FF04460020FFF758FF07
:100E7400204610BD30B587B001211020FFF7DEFAFF
:100E840001210846FFF7CCFA1C4D07220921284608
:100E9400FFF751FA07220A212846FFF74CFA0223EA
:100EA4008DF8143000248DF816408DF817404FF457
:100EB400C063049303238DF8153004A92846FFF773
:100EC400D9F94FF416530093ADF80C400C23ADF848
:100ED4000A30ADF80840ADF80640ADF8044004F11E
:100EE400804404F5883469462046FFF7B5FA0121A9
:100EF4002046FFF717FB07B030BD00BF00000240DB
:100F040070B506460D461446FFF752FF3046FFF70C
:100F140068FFFFF7A0FF2846FFF763FFFFF79BFF7B
:100F24002046FFF75EFFFFF796FFFFF74FFF70BD08
:100F340070B506460C461546FFF73AFF3046FFF7F4
:100F440050FFFFF788FF2846FFF74BFFFFF783FFAB
:100F5400FFF72EFF44F00100FFF743FFFFF77BFF8D
:100F6400FFF753FF04460120FFF76BFFFFF72EFF47
:100F7400204670BD08B5FFF7FDFE702200213C201D
:100F8400FFF7BEFF402201213C20FFF7B9FF0022FA
:100F940002213C20FFF7B4FF08BD08B5FFF7EAFEC5
:100FA40001226B21D020FFF7ABFF00226C21D0205F
:100FB400FFF7A6FF09221921D020FFF7A1FF06227F
:100FC4001A21D020FFF79CFF18221B21D020FFF705
:100FD40097FF18221C21D020FFF792FF022237210D
:100FE400D020FFF78DFF00226A21D020FFF788FF71
:100FF40008BD08B5FFF7BEFFFFF7CFFF08BD2DE919
:10100400F04107460E4615461C463B22D0210846B1
:10101400FFF78EFF80463C22D0210846FFF788FF69
:1010240040EA082038803D22D0210846FFF780FF9F
:1010340007463E22D0210846FFF77AFF40EA072000
:1010440030803F22D0210846FFF772FF0646402237
:10105400D0210846FFF76CFF40EA0620288043228F
:10106400D0210846FFF764FF05464422D0210846F4
:10107400FFF75EFF40EA052020804522D021084684
:10108400FFF756FF04464622D0210846FFF750FFDB
:1010940040EA0420069B18804722D0210846FFF727
:1010A40047FF04464822D0210846FFF741FF40EAA3
:1010B4000420079B1880BDE8F0810000DFED1F7A53
:1010C400C0ED077AC0ED087A90ED047AD0ED036A9A
:1010D40037EE667A80ED097A67EE006A76EEA76AE3
:1010E400C0ED076AD0ED0A7A77EE677A87EE806AF8
:1010F40080ED086AD0ED007A67EE277AD0ED015AC8
:1011040066EEA56A77EEA67AD0ED026A26EE266A26
:1011140077EE867A90ED050AF4EEC07AF1EE10FAD5
:1011240008D490ED060AF4EEC07AF1EE10FA01DC70
:10113400B0EE670A80ED0A7A704700BF0000000035
:10114400F0B52DED028B99B0B0EE418A13EE105A32
:1011540000240C940D940E94CDED0F1A8DED102AED
:10116400104F1197104E12961394149415941694CC
:10117400B0EE600A0CA8FFF7A1FF0094019402945A
:101184008DED030A0495059706960794089409942F
:101194000A94B0EE480A6846FFF790FF19B0BDEC18
:1011A400028BF0BD00007AC400007A44F0B52DED46
:1011B400028B99B0B0EE418A13EE105A00240C94BD
:1011C4000D940E94CDED0F1A8DED102A104F11973A
:1011D400104E12961394149415941694B0EE600A5B
:1011E4000CA8FFF76BFF0094019402948DED030AA1
:1011F4000495059706960794089409940A94B0EE0A
:10120400480A6846FFF75AFF19B0BDEC028BF0BDDF
:1012140000007AC400007A44F0B52DED028B99B039
:10122400B0EE418A13EE105A00240C940D940E94DF
:10123400CDED0F1A8DED102A104F1197104E129606
:101244001394149415941694B0EE600A0CA8FFF746
:1012540035FF0094019402948DED030A04950597DB
:1012640006960794089409940A94B0EE480A6846CE
:10127400FFF724FF19B0BDEC028BF0BD00007AC467
:1012840000007A44DFF834D0FEF7EAFF0C480D4939
:101294000D4A002302E0D458C4500433C4188C42CD
:1012A400F9D30A4A0A4C002301E013600432A24233
:1012B400FBD3FEF7B1FFFFF743F97047008001202D
:1012C4000000002014000020041300081400002073
:1012D40058030020FEE70000F8B500BFF8BC08BCC6
:1012E4009E467047F8B500BFF8BC08BC9E467047E0
:0812F400CCFDFF7F01000000AA
:0412FC00FD010008E8
:04130000D50100080B
:1013040000000000010203040102030406070809A7
:0413140002000000D3
:040000050800128954
:00000001FF
