:020000040800F2
:1000000000800120C11D0008BD180008BF180008AD
:10001000C1180008C3180008C51800080000000037
:10002000000000000000000000000000C7180008E9
:10003000C918000800000000CB180008CD180008FF
:10004000111E0008111E0008111E0008111E0008D4
:10005000111E0008111E0008111E0008111E0008C4
:10006000111E0008111E0008111E0008111E0008B4
:10007000111E0008111E0008111E0008111E0008A4
:10008000111E0008111E0008111E000800000000CB
:10009000000000000000000000000000111E000829
:1000A000111E0008111E0008111E0008111E000874
:1000B000111E0008111E0008111E0008111E000864
:1000C000111E0008111E0008111E0008111E000854
:1000D000111E0008111E0008111E0008000000007B
:1000E000111E0008111E0008111E0008000000006B
:1000F000000000000000000000000000111E0008C9
:1001000000000000111E0008111E0008111E00084A
:1001100000000000000000000000000000000000DF
:10012000111E0008111E0008111E0008111E0008F3
:10013000111E000800000000000000000000000088
:10014000000000000000000000000000111E000878
:10015000111E0008111E0008111E0008111E0008C3
:10016000111E0008111E0008000000000000000021
:10017000000000000000000000000000000000007F
:1001800000000000111E0008000000000000000038
:04019000111E000834
:1001A0000348044B834202D0034B03B11847704706
:1001B0007400002074000020000000000548064B79
:1001C0001B1AD90F01EBA301491002D0034B03B155
:1001D00018477047740000207400002000000000E1
:1001E00010B5064C237843B9FFF7DAFF044B13B17F
:1001F0000448AFF300800123237010BD7400002079
:1002000000000000141E000808B5044B1BB104498F
:100210000448AFF30080BDE80840CFE700000000CD
:1002200078000020141E000870B50D4E0D4D761B91
:10023000B61006D0002455F8043B01349847A64276
:10024000F9D1094E094D761B01F0E4FDB61006D038
:10025000002455F8043B01349847A642F9D170BDFB
:10026000D41E0008D41E0008D81E0008D41E0008A2
:1002700070B50B4E9AB004466FF00045CDE90445C9
:10028000134600940A463068064C0295694603946A
:1002900000F0B8F9009B00221A701AB070BD00BFC0
:1002A000000000200802FFFF10B59AB06FF0004474
:1002B000CDE90414009102946946044C039400F0C3
:1002C000A1F9009B00221A701AB010BD0802FFFFAE
:1002D000002958D030B551F8043C83B0002BA1F16F
:1002E0000404B8BFE418019000F010FE284A0198F9
:1002F000136833B1A3420DD9216804EB010C6345A7
:100300002FD06360146003B0BDE8304000F000BE41
:10031000A34210D81A465B68002BF9D1116802EB92
:10032000010C644519D02FD36360546003B0BDE85D
:10033000304000F0EDBD116802EB010CA44516D071
:1003400022D8216804EB010C6345EDD11D685B6880
:100350002944C4E900135460D5E7236819441160A7
:10036000D1E71D685B682944C4E90013CAE7246823
:1003700021445418A3421160C5D1D3E9004321445C
:10038000C2E90013BFE770470C230360BBE700BF5F
:1003900090000020F8B5CD1C25F0030508350C2D84
:1003A00038BF0C25002D064623DBA94221D8254F56
:1003B00000F0ACFD3A6822B3144603E063682246BD
:1003C000FBB11C4623685B1BF8D40B2B15D8636864
:1003D00094420CBF3B605360304600F099FD04F13D
:1003E0000B00231D20F00700C21A01D01B1AA350D6
:1003F000F8BD0C2333600020F8BD23601C44256049
:10040000EAE77968C9B12946304600F003FC431C8D
:100410000CD0C41C24F00304A04205D0211A30469D
:1004200000F0F8FB013001D02560D5E70C23304601
:10043000336000F06DFD0020F8BD304600F0EAFBAF
:100440007860E0E7900000202DE9F0478F689F4238
:100450000C461D46164638D88246888910F4906F9F
:100460000ED108683D462A46314600F0D3FCA2680A
:100470002368D21B2B44A26023600020BDE8F087D4
:100480004B69096903EB4308236808EBD878A3EBB1
:1004900001096B1C4FEA68084B444345424684BF40
:1004A00098464246430513D511465046FFF772FF62
:1004B000074608B321694A4600F012FCA38923F4D9
:1004C000906343F08003A38107E008681F46CAE7F2
:1004D000504600F01FFD074650B107EB0900A8EB9E
:1004E00009032761C4F81480A36020602F46BAE78F
:1004F00021695046FFF7ECFE0C23CAF80030A389AF
:1005000043F040034FF0FF30A381B7E72DE9F04FF0
:10051000936883B09146002B6ED017688D68804633
:100520000C460868083744E0A38913F4906F2ED076
:10053000D4E90415A0EB010A05EB450505EBD575DB
:100540000AEB06006D100130A8422A4684BF05461A
:100550002A465B0537D511464046FFF71BFF0028AA
:100560003BD052462169019000F0BAFBA289019B61
:1005700022F4906242F08002A281A5EB0A0203EB12
:100580000A006561A260236120603546B246594683
:10059000524600F03FFCA068D9F808102368451BBC
:1005A0008E1B03EB0A00A5602060C9F808601EB32B
:1005B000083757E902B6002EFAD0B542AA46B3D999
:1005C0003546B246E3E7404600F0A4FC0346002867
:1005D000D3D121694046FFF77BFE0C23C8F80030D9
:1005E000A389002243F040034FF0FF30A381C9E903
:1005F000012203B0BDE8F08F0020C9F8040003B069
:10060000BDE8F08F2DE9F04F92468A8915069DB01E
:10061000884681461C4603D50A69002A00F0EF800F
:10062000002209929AF800307E4D039420228DF822
:10063000292030228DF82A200126002B72D0544622
:1006400003E014F8013F002B76D0252BF9D1B4EB51
:100650000A0B74D12278002A64D000234FF0FF32B5
:10066000CDE90523049307938DF853301A93013491
:1006700004E0049A06FA03F313430493A246052206
:1006800014F8011B284600F0DBFA431B0028F0D1C8
:10069000049BD80644BF20228DF8532019079AF8EE
:1006A000001044BF2B228DF853202A2954D1039ADD
:1006B00011680432002903927CDB07919AF801103B
:1006C0000AF1010A2E2959D0574C0322204600F086
:1006D000B7FA40B1049B001B402404FA00F0034326
:1006E00004930AF1010A1AF8011B50488DF82810EA
:1006F000062200F0A5FA002862D04D4B002B52D004
:1007000003AA00924B4B424604A94846AFF300802F
:1007100007467A1C06D0099B3B4409939AF800309F
:10072000002B8CD1B8F80C305B0654BF09984FF001
:10073000FF301DB0BDE8F08FB4EB0A0BF2D05B4682
:10074000524641464846FFF77FFE0130EAD0099BFA
:1007500022785B4409937EE7A1F13002092AB1D8DF
:10076000079B1AF8011F03EB830302EB4303A1F17C
:100770003002092AF5D92E290793A5D19AF801103C
:100780002A2927D1039B9AF802101A68059204338C
:10079000002A0AF102000393B8BF4FF0FF338246EC
:1007A000B8BF059390E7039B073323F00703083393
:1007B0000393B0E7494243F00203079104937DE7B6
:1007C00003AA00921B4B424604A9484600F0CAF80F
:1007D00007469EE7A1F130020023092A05930AF19A
:1007E000010A3FF671AF1AF8011F03EB830302EB16
:1007F0004303A1F13002092AF5D9059364E74021AA
:10080000FFF7C8FDC8F80000C8F8100018B1402272
:10081000C8F8142004E70C23C9F800304FF0FF306B
:1008200087E700BF981E0008A01E0008A41E00084D
:1008300000000000490400082DE9F84F92461F46C9
:100840000A698B68DDF828909A42B8BF1A46CAF840
:10085000002091F843300C46064613B10132CAF825
:100860000020226891065DD5DAF800300233CAF81C
:100870000030226812F0060F11461ED1E168CB1A33
:10088000002BD8BF114618DD04F1190B4FF00008FA
:1008900005E0E568DAF80030ED1A45450CDD012386
:1008A0005A4639463046C847013008F10108F0D1B0
:1008B0004FF0FF30BDE8F88F216894F84330003BDB
:1008C00018BF01238A060AD5E1185A1C302081F886
:1008D0004300224494F8451082F84310023304F197
:1008E000430239463046C8470130E1D0236803F05F
:1008F0000603042B1DD0A3682269934225DD4FF027
:1009000000089B1A98441A34002501E045451CDA7A
:100910000123224639463046C847013005F101051A
:10092000F4D1C5E712F0060F12D0003B18BF012327
:10093000D5E7DAF80030E1682269C91AA368934262
:1009400021EAE178DDDC0029DDDC0020BDE8F88F5C
:10095000E168DAF80030CB1A002BD8BF114693DCDF
:10096000ABE700BF2DE9F0470C4684B09046227EED
:100970000C990746994604F14300002A33D0A2F1AE
:100980005803DDB2202D67D8202B65D8DFE813F09F
:10099000DE006400640064006400640064006400BD
:1009A000640064006400A3006E00640064006400DE
:1009B00064006E00640064006400640021007F0035
:1009C000C00064006400AE0064007F006400640046
:1009D000E50023681A0640F104810B6862691D1D59
:1009E0000D601B681A60002382462361CDF80090D9
:1009F000434603AA21463846FFF71EFF013020D0A8
:100A00002369524641463846C847013019D0236809
:100A1000E068039E9B0719D5831B002B16DD04F1AC
:100A2000190A002504E0E068039E831BAB420DDD3C
:100A30000123524641463846C847013005F10105B9
:100A4000F1D14FF0FF3004B0BDE8F087B042B8BF3D
:100A5000304604B0BDE8F087012384F842202361CA
:100A600004F1420A002384F84330BFE723681A06E2
:100A700002D45E0600F1C1800D682A6804350D605D
:100A80001546002A6BDBDFF884C10A2610E02368D4
:100A90001D0640F19C800B681D1D0D601D68DFF870
:100AA0006CC16F2A0CBF08260A26002384F8433045
:100AB0006268A260002A7FDB236823F004032360BE
:100AC000002D5BD1002A79D18246082E65D0A0EB9B
:100AD0000A0020618AE70B680122186804330B6062
:100AE00004F1420A84F842002261BBE70B686268A5
:100AF000181D0860D3F800A00021504600F0A0F8AF
:100B0000002800F08180A0EB0A0060602061A9E766
:100B1000236843F0200323607822DFF8F4C084F8D0
:100B200045200A68151D0D601D0643D4590641D5A0
:100B30001588DE0744BF43F020032360002D44D115
:100B4000236823F0200323601026AEE7582384F89F
:100B50004530DFF8B8C02368E3E72368DCE7626864
:100B6000A2602D21002AC5F1000584F8431002DBA4
:100B700023F004032360DFF894C00A268246B5FB05
:100B8000F6F306FB13512A461CF801100AF8011D62
:100B9000B2421D46F3D2082E99D12368D90796D5C3
:100BA000626823699A4292DC30230AF8013C0AF118
:100BB000FF3A8CE71568BCE7002DDFD19CF80030C8
:100BC00084F8423004F1420A7FE710266DE713F003
:100BD000400F0B6803F104050D600CBF1D681D88F4
:100BE0005DE713F0400F0B68626903F104050D60C7
:100BF0001B6814BF1A801A60F5E60A68B2F9005043
:100C000004320A602A463CE760687FE7AC1E0008B1
:100C1000C01E000838B5074D0022044608462A6069
:100C200000F0AAF9431C00D038BD2B68002BFBD084
:100C3000236038BD98000020000000000000000084
:100C400001F0FF01102A2BDB10F0070F08D010F87D
:100C5000013B013A8B422DD010F0070F42B3F6D181
:100C6000F0B441EA012141EA014122F007047FF09A
:100C700000070023F0E80256083C85EA010586EAF1
:100C8000010685FA47F5A3FA87F586FA47F6A5FA2D
:100C900087F68EB9EED1F0BC01F0FF0102F0070239
:100CA00032B110F8013B013A83EA010313B1F8D1E4
:100CB0000020704701387047002D06BF35460338C5
:100CC000073815F0010F07D1013015F4807F02BFFE
:100CD000013015F4C03F0130F0BC0138704700BF4F
:100CE000844641EA000313F003036DD1403A41D337
:100CF00051F8043B40F8043B51F8043B40F8043BF6
:100D000051F8043B40F8043B51F8043B40F8043BE5
:100D100051F8043B40F8043B51F8043B40F8043BD5
:100D200051F8043B40F8043B51F8043B40F8043BC5
:100D300051F8043B40F8043B51F8043B40F8043BB5
:100D400051F8043B40F8043B51F8043B40F8043BA5
:100D500051F8043B40F8043B51F8043B40F8043B95
:100D600051F8043B40F8043B51F8043B40F8043B85
:100D7000403ABDD2303211D351F8043B40F8043B25
:100D800051F8043B40F8043B51F8043B40F8043B65
:100D900051F8043B40F8043B103AEDD20C3205D335
:100DA00051F8043B40F8043B043AF9D2043208D02D
:100DB000D2071CBF11F8013B00F8013B01D30B889F
:100DC00003806046704700BF082A13D38B078DD07D
:100DD00010F003038AD0C3F10403D21ADB071CBF4F
:100DE00011F8013B00F8013B80D331F8023B20F8B9
:100DF000023B7BE7043AD9D3013A11F8013B00F8F2
:100E0000013BF9D20B7803704B7843708B78837079
:100E10006046704788420DD98B1883420AD900EB8F
:100E2000020CBAB1624613F801CD02F801CD994225
:100E3000F9D170470F2A0ED8034602F1FF3C4AB1A0
:100E40000CF1010C013B8C4411F8012B03F8012F2C
:100E50006145F9D1704740EA01039B0750D1A2F1E7
:100E6000100370B501F1200C23F00F0501F1100EF5
:100E700000F11004AC441B095EF8105C44F8105CEF
:100E80005EF80C5C44F80C5C5EF8085C44F8085CA6
:100E90005EF8045C44F8045C0EF1100EE64504F1C3
:100EA0001004E9D1013312F00C0F01EB031102F031
:100EB0000F0400EB031327D0043C24F003064FEA91
:100EC000940C1E441C1F8E465EF8045B44F8045FBD
:100ED000B442F9D10CF1010402F0030203EB8403E4
:100EE00001EB840102F1FF3C4AB10CF1010C013B22
:100EF0008C4411F8012B03F8012F6145F9D170BD25
:100F000002F1FF3C03469BE72246EBE7704700BF38
:100F1000704700BFF8B51446F9B1CAB106460D4690
:100F200000F020F8A04202D32F463846F8BD2146F3
:100F30003046FFF72FFA07460028F6D0224629460A
:100F4000FFF7CEFE30462946FFF7C2F93846F8BD16
:100F50002746FFF7BDF93846F8BDBDE8F840114611
:100F6000FFF718BA51F8040C0028A0F10400BCBF28
:100F70000B58C018704700BF044A05491368002B7E
:100F800008BF0B4618441060184670479C000020AC
:100F9000B0000020034AD2F8883043F47003C2F84E
:100FA0008830704700ED00E000220F2A4DD810B5C0
:100FB00014E0C36894B264004FF0030E0EFA04FE0E
:100FC00023EA0E03C360C36891F807E00EFA0CFC35
:100FD00043EA0C03C36001320F2A35D80123934042
:100FE0000C68A343F7D104684FEA420C032303FAC9
:100FF0000CF36FEA030E24EA0303036003680C7921
:1010000004FA0CF4234303600B79013BDBB2012BA0
:10101000CFD883680EEA0303836083684C7904FAAF
:101020000CF42343836043681FFA82FE012404FA10
:101030000EF423EA0403436044688B7903FA0EF349
:101040009BB223434360B4E710BD70470369194264
:1010500001D00120704700207047816170470AB1BC
:101060008161704709048161704710B401F0070382
:101070009B009A40C908083150F821404FF00F0CEE
:101080000CFA03F324EA030340F8213050F821302E
:10109000134340F821305DF8044B704710B4294BDE
:1010A0009B6803F00C03042B23D0082B24D013B12E
:1010B000254B036001E0244B0360224CA368C3F37B
:1010C00003132249CA5CD2B20368D3404360A268CA
:1010D000C2F382228A5CD2B223FA02F28260A26850
:1010E000C2F342328A5CD2B2D340C3605DF8044B93
:1010F0007047174B0360E0E7124B59685A6802F0DB
:101100003F0211F4800F12D0114BB3FBF2F30D4AE2
:101110005268C2F3881202FB03F30A4A5268C2F310
:10112000014201325200B3FBF2F30360C5E7064B04
:10113000B3FBF2F3034A5268C2F3881202FB03F3D3
:10114000EBE700BF003802400024F40064000020F8
:1011500040787D0121B1054A136B03431363704747
:10116000024A136B23EA00031363704700380240FE
:1011700021B1054A136C034313647047024A136C90
:1011800023EA0003136470470038024021B1054A86
:10119000536C034353647047024A536C23EA0003C1
:1011A000536470470038024000B5B0F820C01FFA01
:1011B0008CFC2CF0010C1FFA8CFCA0F820C0B0F8BD
:1011C00018E01FFA8EFEB0F820C01FFA8CFC2EF03B
:1011D000F30E1B019BB213434EEA030E2CF00A0CD4
:1011E0004CEA010C4CF0010CA0F818E0A0F820C06B
:1011F0005DF804FB00B5B0F820C01FFA8CFC2CF0A1
:10120000100C1FFA8CFCA0F820C0B0F818E0B0F861
:1012100020C01FFA8CFC090189B22EF4407E4FEAEF
:101220000E5E4FEA1E5E1B039BB243EA0E031202E0
:1012300092B21A432CF0A00C4CEA010C4CF0100CAA
:101240000283A0F820C05DF804FB00B5B0F820C010
:101250001FFA8CFC2CF4807C1FFA8CFCA0F820C0B8
:10126000B0F81CE01FFA8EFEB0F820C01FFA8CFC0C
:10127000090289B22EF0F30E1B019BB213434EEA12
:10128000030E2CF4206C4CEA010C4CF4807CA0F88A
:101290001CE0A0F820C05DF804FB00B5B0F820C049
:1012A0001FFA8CFC2CF4805C1FFA8CFCA0F820C088
:1012B000B0F81CE0B0F820C0090389B22EF4407EDB
:1012C0004FEA0E5E4FEA1E5E120292B242EA0E0230
:1012D0001B039BB213432CF4005C4FEA4C4C4FEAC7
:1012E0005C4C41EA0C0141F48051838301845DF838
:1012F00004FB000003889BB21B4A904212D002F507
:10130000806290420ED0B0F1804F0BD0A2F58032B7
:10131000904207D002F58062904203D002F58062CD
:10132000904203D123F070034A8813430F4A90423E
:1013300008D002F58062904204D023F440739BB23F
:101340000A89134303804B68C3620B880385064BED
:10135000984203D003F58063984201D18B7A0386CB
:1013600001238382704700BF00000140001000404D
:1013700029B103889BB243F0800303807047038840
:101380009BB223F080039BB20380704729B103888E
:101390009BB243F001030380704703889BB223F0A4
:1013A00001039BB20380704710B5038C9BB223F0FE
:1013B00001039BB20384B0F820C01FFA8CFCB0F884
:1013C00004E01FFA8EFE028B92B222F073020B88A9
:1013D0001A432CF0020C8B894CEA030C4B8843EA2D
:1013E0000C030F4CA04203D004F58064A0420FD13F
:1013F00023F00803CC89234323F004038C88234380
:101400002EF4407E0C8A4EEA040E4C8A44EA0E0EFC
:10141000A0F804E002838A684263038410BD00BF21
:101420000000014000B5038C9BB223F010039BB277
:101430000384028C92B2B0F804E01FFA8EFEB0F87A
:1014400018C01FFA8CFC2CF4E64C0B881B029BB2D4
:101450004CEA030C22F020028B891B019BB21A4339
:101460004B881B019BB21343134A904203D002F5F1
:101470008062904217D123F08003CA89120192B290
:10148000134323F040038A88120192B213432EF4CF
:10149000406E0A8A920092B24EEA020E4A8A920086
:1014A00092B242EA0E0EA0F804E0A0F818C08A68D2
:1014B000826303845DF804FB0000014000B5038CE7
:1014C0009BB223F480739BB20384028C92B2B0F877
:1014D00004E01FFA8EFEB0F81CC01FFA8CFC2CF042
:1014E000730C0B884CEA030C22F400728B891B02EC
:1014F0009BB21A434B881B029BB21343134A904280
:1015000003D002F58062904217D123F40063CA89A8
:10151000120292B2134323F480638A88120292B2B9
:1015200013432EF4405E0A8A120192B24EEA020E72
:101530004A8A120192B242EA0E0EA0F804E0A0F824
:101540001CC08A68C26303845DF804FB000001408C
:1015500010B5038C9BB223F480539BB20384B0F884
:1015600020C01FFA8CFCB0F804E01FFA8EFE828BBC
:1015700092B222F4E6420B881B029BB21A432CF46F
:10158000005C8B891B039BB24CEA030C4B881B034A
:101590009BB243EA0C030C4CA04203D004F58064D8
:1015A000A04209D12EF4804EB1F810C04FEA8C1C35
:1015B0001FFA8CFC4EEA0C0EA0F804E082838A68C5
:1015C0000264038410BD00BF0000014000230380BB
:1015D0004380838083608381C38103824382704719
:1015E0004163704781637047C1637047016470470E
:1015F000038B9BB223F008030B4303837047038BD9
:101600009BB223F40063090289B20B430383704742
:10161000838B9BB223F008030B4383837047838B38
:101620009BB223F40063090289B20B4383837047A2
:10163000406B7047806B7047038B9BB223F00C03A9
:101640009BB20383038B9BB20B4303837047038BD3
:101650009BB223F440639BB20383038B9BB20902CA
:1016600089B20B4303837047838B9BB223F00C0337
:101670009BB28383838B9BB20B4383837047838BA3
:101680009BB223F440639BB28383838B9BB209029A
:1016900089B20B438383704738B505460C460B88E7
:1016A0006BB1042B15D0082B1DD00B898A88498873
:1016B000FFF7F3FDE1882846FFF7E1FF38BD0B890E
:1016C0008A884988FFF770FDE1882846FFF7B4FF54
:1016D000F4E70B898A884988FFF78CFDE188284662
:1016E000FFF7B5FFEAE70B898A884988FFF7ADFD68
:1016F000E1882846FFF7B8FFE0E703899BB223F0B3
:1017000007039BB20381704703899BB223F07003E8
:101710000B430381704703899BB223F007039BB2FD
:10172000038103899BB20B430381704730B585B0B9
:1017300004460D46038A9BB223F44053CA881343E0
:10174000038283899BB223F4B05323F00C0389886E
:1017500028896A8901430A431343A381A38A9BB260
:1017600023F44073AA891343A3826846FFF796FCCB
:101770001F4B9C4205D003F580639C4201D0029B25
:1017800000E0039BA28912F4004F1FD103EB8303F7
:1017900003EB83032A689200B3FBF2F3154AA2FB22
:1017A000031252091101642002FB1033A28912F4C2
:1017B000004F14D11B0132330E4AA2FB0323C3F3A3
:1017C00043130B439BB2238105B030BD03EB83036E
:1017D00003EB83032A685200B3FBF2F3DEE7DB007E
:1017E0003233044AA2FB0323C3F342130B43E9E75A
:1017F000001001401F85EB5129B183899BB243F44E
:1018000000538381704783899BB223F400539BB2BA
:1018100083817047C1F308018180704703881942B2
:1018200001D00120704700207047000008B500F08B
:101830001AFA00F04FF900F01DFA00F04BF84FF0E3
:101840008040FFF7F7FE013000EB800044004FF0CE
:101850008040FFF7EDFE0130B4FBF0F30E4A136059
:1018600003EB83030D48A0FB03201B1A00EB53007E
:1018700080080B4C206080B200F07AFA208800F0DB
:1018800081FA208800F088FA208800F08FFA216819
:10189000044800F07FF9D2E7A400002025499224F3
:1018A000A00000208C1E0008034B1B681BB1024ADD
:1018B0001368013B13607047A80000207047FEE7E3
:1018C000FEE7FEE7FEE770477047704708B5FFF791
:1018D000EBFF08BD2DE9F04188B001210846FFF774
:1018E00047FC01210846FFF735FC2C4F012200215F
:1018F0003846FFF7BAFB02268DF81C6000248DF8ED
:101900001F400125069503238DF81D3006A9384692
:10191000FFF74AFBADF81440ADF80E404FF6FF73E9
:1019200004930F27ADF80C708DF8164003A94FF003
:101930008040FFF7DFFCADF80040ADF80870ADF86F
:101940000240ADF80640ADF8045069464FF08040C3
:10195000FFF7A2FE4FF00408ADF80080ADF8087064
:10196000ADF80260ADF80640ADF8046069464FF08E
:101970008040FFF791FE50214FF08040FFF7C4FEFA
:1019800041464FF08040FFF7C6FE29464FF08040A9
:10199000FFF7FCFC08B0BDE8F08100BF000002408A
:1019A00000EBC000C0004FF0E023586100229A61B4
:1019B00005221A614FF0E0231B6913F4803FF9D030
:1019C0004FF0E02304221A617047000008B5024678
:1019D0004FF480610348FFF742FB0A20FFF7E0FF66
:1019E00008BD00BF0008024008B502464FF4805110
:1019F0000348FFF734FB0A20FFF7D2FF08BD00BF02
:101A00000008024010B54FF480510448FFF71EFB58
:101A100004460A20FFF7C4FF204610BD000802401C
:101A200030B583B001210420FFF794FB01238DF82A
:101A300004308DF806304FF4A055009502238DF840
:101A40000530054C69462046FFF7AEFA2946204688
:101A5000FFF703FB03B030BD0008024008B50120CA
:101A6000FFF7C2FF0120FFF7B1FF0020FFF7BCFF27
:101A70000020FFF7ABFF08BD08B50020FFF7B4FF5B
:101A80000120FFF7A3FF0120FFF7AEFF08BD38B527
:101A9000054600240CE0802020412840FFF7A4FFE9
:101AA0000120FFF793FF0020FFF790FF0134E4B21D
:101AB000072CF0D938BD10B50120FFF795FF0120A4
:101AC000FFF784FFFFF79EFF04460020FFF77EFF2D
:101AD000204610BD30B587B001211020FFF756FB1E
:101AE00001210846FFF736FB1C4D07220921284635
:101AF000FFF7BBFA07220A212846FFF7B6FA0223AE
:101B00008DF8143000248DF816408DF817404FF4EE
:101B1000C063049303238DF8153004A92846FFF70A
:101B200043FA4FF416530093ADF80C400C23ADF874
:101B30000A30ADF80840ADF80640ADF8044004F1B5
:101B4000804404F5883469462046FFF7EFFD012103
:101B50002046FFF751FE07B030BD00BF0000024035
:101B600008B501460448FFF755FE80210248FFF7FB
:101B700055FE0028F9D008BD0010014038B50546D3
:101B8000002403E0FFF7ECFF0134E4B2285D0028F5
:101B9000F8D138BD0FB400B59BB01CAA52F8041B95
:101BA000009201A8FEF764FB01A8FFF7E7FF1BB056
:101BB0005DF804EB04B0704770B506460D46144658
:101BC000FFF74CFF3046FFF762FFFFF774FF284630
:101BD000FFF75DFFFFF76FFF2046FFF758FFFFF7A6
:101BE0006AFFFFF749FF70BD08B5FFF719FF7022C4
:101BF00000213C20FFF7E0FF402201213C20FFF7BD
:101C0000DBFF002202213C20FFF7D6FF08BD08B50C
:101C1000FFF706FF01226B21D020FFF7CDFF002246
:101C20006C21D020FFF7C8FF09221921D020FFF72F
:101C3000C3FF06221A21D020FFF7BEFF18221B2166
:101C4000D020FFF7B9FF18221C21D020FFF7B4FFE6
:101C500002223721D020FFF7AFFF00226A21D020D7
:101C6000FFF7AAFF08BD08B5FFF7BEFFFFF7CFFFDC
:101C700008BD0000F0B58BB001210220FFF778FA13
:101C800001210420FFF766FA02268DF82460002562
:101C90008DF826504FF47073089301278DF8277044
:101CA00003238DF82530314C08A92046FFF77CF935
:101CB000324606212046FFF7D8F932460721204652
:101CC000FFF7D3F9324608212046FFF7CEF9324616
:101CD00009212046FFF7C9F9A4F501342046FFF792
:101CE0000CFDADF81C50ADF8165040F2CF730693C2
:101CF0009F23ADF814308DF81E5005A92046FFF73C
:101D0000F9FA6846FFF762FC6023ADF80030ADF8E1
:101D10000C50ADF80270029569462046FFF744FB6F
:101D200069462046FFF77EFB69462046FFF7C6FB63
:101D300069462046FFF70CFC08212046FFF758FCB7
:101D400008212046FFF75BFC08212046FFF760FCD6
:101D500008212046FFF763FC39462046FFF708FBC1
:101D600039462046FFF712FB0BB0F0BD00080240D9
:101D700008B500EB800081000148FFF731FC08BD89
:101D80000004004008B500EB800081000148FFF727
:101D900029FC08BD0004004008B500EB800081006C
:101DA0000148FFF721FC08BD0004004008B500EB26
:101DB000800081000148FFF719FC08BD00040040C5
:101DC000DFF834D0FFF7E6F80C480D490D4A002340
:101DD00002E0D458C4500433C4188C42F9D30A4AE0
:101DE0000A4C002301E013600432A242FBD3FEF749
:101DF0001BFAFFF71BFD7047008001200000002048
:101E000074000020DC1E000874000020AC000020DC
:101E1000FEE70000F8B500BFF8BC08BC9E4670475E
:0C1E2000F8B500BFF8BC08BC9E46704737
:101E2C0000000000000000000000000000000000A6
:101E3C000000000000000000000000000000000096
:101E4C000000000000000000000000000000000086
:101E5C000000000000000000000000000000000076
:101E6C000000000000000000000000000000000066
:101E7C000000000000000000000000000000000056
:101E8C00446174613A25640D0A000000232D302B47
:101E9C0020000000686C4C006566674546470000F2
:101EAC003031323334353637383941424344454684
:101EBC000000000030313233343536373839616246
:081ECC0063646566000000007C
:041ED40009020008F7
:041ED800E10100081C
:101EDC0004000020000000006C1E00084C1E0008CE
:101EEC002C1E000800000000000000000000000094
:101EFC0000000000000000000000000000000000D6
:101F0C0000000000000000000000000000000000C5
:101F1C0000000000000000000000000000000000B5
:101F2C0000000000000000000000000000000000A5
:101F3C000000000000000000010203040102030481
:041F4C000607080973
:0400000508001DC111
:00000001FF
